:060000000A128A110C280F
:10000800FE00030EF1000A08F2000A128A11EA291A
:100018000A128A110F28F801F901FA018312031351
:10002800AA01AB01AC01AD01AE01AF0183010A1217
:100038008A111D2A83120313A700AD01AE01AF0177
:1000480064302702031C29282A2856286430F30024
:100058000030F4002708A400A5012408F5002508AD
:10006800F6000A128A1193200A128A117308831261
:100078000313A6002608AD006430F3000030F40036
:100088002708A400A5012408F5002508F6000A128F
:100098008A115B210A128A11730883120313A600BE
:1000A8002608A7000A302702031C5B285C2888283A
:1000B8000A30F3000030F4002708A400A501240842
:1000C800F5002508F6000A128A1193200A128A11EF
:1000D800730883120313A6002608AE000A30F30043
:1000E8000030F4002708A400A5012408F50025081D
:1000F800F6000A128A115B210A128A117308831208
:100108000313A6002608AF000A30270203188D281B
:100118008E2892282708A4002408AF00080083121C
:100128000313A101F41F99289A28A128F309F409B7
:10013800F30A0319F40AA101A10AF61FA428A528A5
:10014800AE28F509F609F50A0319F60A0130F70091
:100158007708A106A201A301730874040319B5283E
:10016800B628ED28A001A00AC42801300310F30D19
:10017800F40DFF3E031DBA280130F7007708A007E9
:10018800F41FC728C828B92801300310A20DA30DF1
:10019800FF3E031DC92874087602031DD52873087D
:1001A8007502031CD828D928E0287308F5027408BA
:1001B800031CF603F602221401300310F40CF30CAE
:1001C800FF3E031DE1280130A002031DEC28ED28A5
:1001D800C82821080319F128F228F728A209A30939
:1001E800A20A0319A30A2308F4002208F30008004E
:1001F800F50032293F30F3007308F8005A29063019
:10020800F3007308F8005A295B30F3007308F8000C
:100218005A294F30F3007308F8005A296630F30062
:100228007308F8005A296D30F3007308F8005A294A
:100238007D30F3007308F8005A290730F30073087B
:10024800F8005A297F30F3007308F8005A296F30F4
:10025800F3007308F8005A29F8015A297508F300C1
:10026800F4017408003A03193A2930297308003A4E
:100278000319FE28013A03190329033A0319082927
:10028800013A03190D29073A03191229013A0319EA
:100298001729033A03191C29013A031921290F3A8E
:1002A80003192629013A03192B293029080083123A
:1002B8000313A101F61F612962296929F509F609C5
:1002C800F50A0319F60AA101A10AF41F6C296D2980
:1002D8007229F309F409F30A0319F40A7308740478
:1002E800031977297829A729A001A00A86290130AE
:1002F8000310F30DF40DFF3E031D7C290130F700B8
:100308007708A007F41F89298A297B2974087602AF
:10031800031D902973087502031C932994299A29AF
:100328007308F5027408031CF603F6020130031083
:10033800F40CF30CFF3E031D9B290130A002031DA2
:10034800A629A7298A2921080319AB29AC29B1298B
:10035800F509F609F50A0319F60A7608F40075088E
:10036800F300080083160317880189018316031315
:100378000F088F3930388F000F148501831203134B
:1003880085018316031387018312031387018316DC
:1003980003138801831203138801831603130614B9
:1003A8008614811315149514811281110730810464
:1003B800F6308312031381008B178B168B15831667
:1003C8000313161496140B110B1008000B1CED29BF
:1003D800EE29012A831203130618F329F429F929AF
:1003E8000130F00070088507FF298618FC29FD29CF
:1003F800FF29013085020B10162A0B1D042A052A35
:10040800162AF6308312031381000B110130F00015
:100418007008F90703307902031C132A142A162AD4
:10042800F901162A72088A00710E8300FE0E7E0EEC
:1004380009000A128A11B6210A128A1179080A12C9
:100448008A1170220A128A11831203130508A80060
:100458002808FA007A080A128A111E200A128A113C
:10046800831203132E08A8002808F6002D08A900F7
:100478002908F7002F080A128A1148220A128A113D
:10048800222A0A128A110C2883120313A1002108B8
:100498000A128A11FC200A128A117808831203139F
:1004A800A0002008AC0076080A128A11FC200A1263
:1004B8008A11780883120313A0002008AB0077087C
:1004C8000A128A11FC200A128A117808831203136F
:1004D800A0002008AA000800F50083120313880171
:1004E800832A2C0887000814962A2B08870088146A
:1004F800962A2A0887000815962A8801962A7508D8
:10050800F300F4017408003A03198B2A812A73084E
:10051800003A0319752A013A0319792A033A03198B
:060528007D2A812A080073
:08400000FF3FFF3FFF3FFF3FC0
:04400E00D420FF3F7C
:00000001FF
