:060000000A128A110C280F
:10000800FE00030EF1000A08F2000A128A111328F2
:100018000A128A110F2883010A128A114C280B1C14
:100028001628172829288312031306181C281D28A8
:1000380022280130F000700885072828861825280E
:1000480026282828013085020B1072088A00710EB4
:100058008300FE0E7E0E09008316031788018901AE
:10006800831603130F088F3960388F000F1485012A
:100078008312031385018316031306148614811350
:10008800151495148B178B15161496140B1008005D
:100098000A128A1130200A128A1151280A128A116A
:0200A8000C2822
:08400000FF3FFF3FFF3FFF3FC0
:04400E00D420FF3F7C
:00000001FF
