:060000000A128A110C280F
:10000800FE00030EF1000A08F2000A128A114228C3
:100018000A128A110F28F30183010A128A116D2826
:100028008316031788018901831603130F088F3974
:1000380030388F000F14850183120313850183164E
:10004800031387018312031387018316031306140E
:1000580086148113151495148112811107308104B7
:10006800CE308312031381008B178B168B158316E2
:100078000313161496140B110B1008000B1C4528BB
:10008800462859288312031306184B284C28512850
:100098000130F0007008850757288618542855281D
:1000A8005728013085020B1066280B1D5C285D2837
:1000B8006628CE308312031381000B110130F00043
:1000C8007008870772088A00710E8300FE0E7E0E84
:1000D80009000A128A1114200A128A1172280A12B7
:0400E8008A110C2845
:08400000FF3FFF3FFF3FFF3FC0
:04400E00D420FF3F7C
:00000001FF
